{
    "_format": "hh-sol-artifact-1",
    "contractName": "SPCredentials",
    "sourceName": "contracts/SPCredentials.sol",
    "abi": [
        {
            "inputs": [],
            "stateMutability": "nonpayable",
            "type": "constructor"
        },
        {
            "anonymous": false,
            "inputs": [
                {
                    "indexed": true,
                    "internalType": "address",
                    "name": "owner",
                    "type": "address"
                },
                {
                    "indexed": true,
                    "internalType": "address",
                    "name": "approved",
                    "type": "address"
                },
                {
                    "indexed": true,
                    "internalType": "uint256",
                    "name": "tokenId",
                    "type": "uint256"
                }
            ],
            "name": "Approval",
            "type": "event"
        },
        {
            "anonymous": false,
            "inputs": [
                {
                    "indexed": true,
                    "internalType": "address",
                    "name": "owner",
                    "type": "address"
                },
                {
                    "indexed": true,
                    "internalType": "address",
                    "name": "operator",
                    "type": "address"
                },
                {
                    "indexed": false,
                    "internalType": "bool",
                    "name": "approved",
                    "type": "bool"
                }
            ],
            "name": "ApprovalForAll",
            "type": "event"
        },
        {
            "anonymous": false,
            "inputs": [
                {
                    "indexed": true,
                    "internalType": "address",
                    "name": "previousOwner",
                    "type": "address"
                },
                {
                    "indexed": true,
                    "internalType": "address",
                    "name": "newOwner",
                    "type": "address"
                }
            ],
            "name": "OwnershipTransferred",
            "type": "event"
        },
        {
            "anonymous": false,
            "inputs": [
                {
                    "indexed": false,
                    "internalType": "address",
                    "name": "account",
                    "type": "address"
                }
            ],
            "name": "Paused",
            "type": "event"
        },
        {
            "anonymous": false,
            "inputs": [
                {
                    "indexed": true,
                    "internalType": "address",
                    "name": "from",
                    "type": "address"
                },
                {
                    "indexed": true,
                    "internalType": "address",
                    "name": "to",
                    "type": "address"
                },
                {
                    "indexed": true,
                    "internalType": "uint256",
                    "name": "tokenId",
                    "type": "uint256"
                }
            ],
            "name": "Transfer",
            "type": "event"
        },
        {
            "anonymous": false,
            "inputs": [
                {
                    "indexed": false,
                    "internalType": "address",
                    "name": "account",
                    "type": "address"
                }
            ],
            "name": "Unpaused",
            "type": "event"
        },
        {
            "inputs": [
                {
                    "internalType": "address",
                    "name": "to",
                    "type": "address"
                },
                {
                    "internalType": "uint256",
                    "name": "tokenId",
                    "type": "uint256"
                }
            ],
            "name": "approve",
            "outputs": [],
            "stateMutability": "nonpayable",
            "type": "function"
        },
        {
            "inputs": [
                {
                    "internalType": "address",
                    "name": "owner",
                    "type": "address"
                }
            ],
            "name": "balanceOf",
            "outputs": [
                {
                    "internalType": "uint256",
                    "name": "",
                    "type": "uint256"
                }
            ],
            "stateMutability": "view",
            "type": "function"
        },
        {
            "inputs": [
                {
                    "internalType": "uint256",
                    "name": "tokenId",
                    "type": "uint256"
                },
                {
                    "internalType": "string",
                    "name": "_tokenURI",
                    "type": "string"
                }
            ],
            "name": "changeTokenURI",
            "outputs": [],
            "stateMutability": "nonpayable",
            "type": "function"
        },
        {
            "inputs": [
                {
                    "internalType": "uint256",
                    "name": "tokenId",
                    "type": "uint256"
                }
            ],
            "name": "getApproved",
            "outputs": [
                {
                    "internalType": "address",
                    "name": "",
                    "type": "address"
                }
            ],
            "stateMutability": "view",
            "type": "function"
        },
        {
            "inputs": [],
            "name": "getNFTCollection",
            "outputs": [
                {
                    "components": [
                        {
                            "internalType": "address",
                            "name": "owner",
                            "type": "address"
                        },
                        {
                            "internalType": "string",
                            "name": "tokenURI",
                            "type": "string"
                        },
                        {
                            "internalType": "uint256",
                            "name": "tokenId",
                            "type": "uint256"
                        }
                    ],
                    "internalType": "struct SPCredentials.credentialERC721NFT[]",
                    "name": "",
                    "type": "tuple[]"
                }
            ],
            "stateMutability": "view",
            "type": "function"
        },
        {
            "inputs": [
                {
                    "internalType": "address",
                    "name": "owner",
                    "type": "address"
                },
                {
                    "internalType": "address",
                    "name": "operator",
                    "type": "address"
                }
            ],
            "name": "isApprovedForAll",
            "outputs": [
                {
                    "internalType": "bool",
                    "name": "",
                    "type": "bool"
                }
            ],
            "stateMutability": "view",
            "type": "function"
        },
        {
            "inputs": [],
            "name": "name",
            "outputs": [
                {
                    "internalType": "string",
                    "name": "",
                    "type": "string"
                }
            ],
            "stateMutability": "view",
            "type": "function"
        },
        {
            "inputs": [
                {
                    "internalType": "uint256",
                    "name": "",
                    "type": "uint256"
                }
            ],
            "name": "nftCollection",
            "outputs": [
                {
                    "internalType": "address",
                    "name": "owner",
                    "type": "address"
                },
                {
                    "internalType": "string",
                    "name": "tokenURI",
                    "type": "string"
                },
                {
                    "internalType": "uint256",
                    "name": "tokenId",
                    "type": "uint256"
                }
            ],
            "stateMutability": "view",
            "type": "function"
        },
        {
            "inputs": [],
            "name": "owner",
            "outputs": [
                {
                    "internalType": "address",
                    "name": "",
                    "type": "address"
                }
            ],
            "stateMutability": "view",
            "type": "function"
        },
        {
            "inputs": [
                {
                    "internalType": "uint256",
                    "name": "tokenId",
                    "type": "uint256"
                }
            ],
            "name": "ownerOf",
            "outputs": [
                {
                    "internalType": "address",
                    "name": "",
                    "type": "address"
                }
            ],
            "stateMutability": "view",
            "type": "function"
        },
        {
            "inputs": [],
            "name": "pause",
            "outputs": [],
            "stateMutability": "nonpayable",
            "type": "function"
        },
        {
            "inputs": [],
            "name": "paused",
            "outputs": [
                {
                    "internalType": "bool",
                    "name": "",
                    "type": "bool"
                }
            ],
            "stateMutability": "view",
            "type": "function"
        },
        {
            "inputs": [],
            "name": "renounceOwnership",
            "outputs": [],
            "stateMutability": "nonpayable",
            "type": "function"
        },
        {
            "inputs": [
                {
                    "internalType": "address",
                    "name": "to",
                    "type": "address"
                },
                {
                    "internalType": "string",
                    "name": "uri",
                    "type": "string"
                }
            ],
            "name": "safeMint",
            "outputs": [],
            "stateMutability": "nonpayable",
            "type": "function"
        },
        {
            "inputs": [
                {
                    "internalType": "address",
                    "name": "from",
                    "type": "address"
                },
                {
                    "internalType": "address",
                    "name": "to",
                    "type": "address"
                },
                {
                    "internalType": "uint256",
                    "name": "tokenId",
                    "type": "uint256"
                }
            ],
            "name": "safeTransferFrom",
            "outputs": [],
            "stateMutability": "nonpayable",
            "type": "function"
        },
        {
            "inputs": [
                {
                    "internalType": "address",
                    "name": "from",
                    "type": "address"
                },
                {
                    "internalType": "address",
                    "name": "to",
                    "type": "address"
                },
                {
                    "internalType": "uint256",
                    "name": "tokenId",
                    "type": "uint256"
                },
                {
                    "internalType": "bytes",
                    "name": "data",
                    "type": "bytes"
                }
            ],
            "name": "safeTransferFrom",
            "outputs": [],
            "stateMutability": "nonpayable",
            "type": "function"
        },
        {
            "inputs": [
                {
                    "internalType": "address",
                    "name": "operator",
                    "type": "address"
                },
                {
                    "internalType": "bool",
                    "name": "approved",
                    "type": "bool"
                }
            ],
            "name": "setApprovalForAll",
            "outputs": [],
            "stateMutability": "nonpayable",
            "type": "function"
        },
        {
            "inputs": [
                {
                    "internalType": "bytes4",
                    "name": "interfaceId",
                    "type": "bytes4"
                }
            ],
            "name": "supportsInterface",
            "outputs": [
                {
                    "internalType": "bool",
                    "name": "",
                    "type": "bool"
                }
            ],
            "stateMutability": "view",
            "type": "function"
        },
        {
            "inputs": [],
            "name": "symbol",
            "outputs": [
                {
                    "internalType": "string",
                    "name": "",
                    "type": "string"
                }
            ],
            "stateMutability": "view",
            "type": "function"
        },
        {
            "inputs": [
                {
                    "internalType": "uint256",
                    "name": "tokenId",
                    "type": "uint256"
                }
            ],
            "name": "tokenURI",
            "outputs": [
                {
                    "internalType": "string",
                    "name": "",
                    "type": "string"
                }
            ],
            "stateMutability": "view",
            "type": "function"
        },
        {
            "inputs": [
                {
                    "internalType": "address",
                    "name": "from",
                    "type": "address"
                },
                {
                    "internalType": "address",
                    "name": "to",
                    "type": "address"
                },
                {
                    "internalType": "uint256",
                    "name": "tokenId",
                    "type": "uint256"
                }
            ],
            "name": "transferFrom",
            "outputs": [],
            "stateMutability": "nonpayable",
            "type": "function"
        },
        {
            "inputs": [
                {
                    "internalType": "address",
                    "name": "newOwner",
                    "type": "address"
                }
            ],
            "name": "transferOwnership",
            "outputs": [],
            "stateMutability": "nonpayable",
            "type": "function"
        },
        {
            "inputs": [],
            "name": "unpause",
            "outputs": [],
            "stateMutability": "nonpayable",
            "type": "function"
        }
    ],
    "bytecode": "0x60806040523480156200001157600080fd5b506040518060400160405280600d81526020017f535043726564656e7469616c73000000000000000000000000000000000000008152506040518060400160405280600381526020017f535043000000000000000000000000000000000000000000000000000000000081525081600090816200008f91906200042d565b508060019081620000a191906200042d565b5050506000600760006101000a81548160ff021916908315150217905550620000df620000d3620000e560201b60201c565b620000ed60201b60201c565b62000514565b600033905090565b6000600760019054906101000a900473ffffffffffffffffffffffffffffffffffffffff16905081600760016101000a81548173ffffffffffffffffffffffffffffffffffffffff021916908373ffffffffffffffffffffffffffffffffffffffff1602179055508173ffffffffffffffffffffffffffffffffffffffff168173ffffffffffffffffffffffffffffffffffffffff167f8be0079c531659141344cd1fd0a4f28419497f9722a3daafe3b4186f6b6457e060405160405180910390a35050565b600081519050919050565b7f4e487b7100000000000000000000000000000000000000000000000000000000600052604160045260246000fd5b7f4e487b7100000000000000000000000000000000000000000000000000000000600052602260045260246000fd5b600060028204905060018216806200023557607f821691505b6020821081036200024b576200024a620001ed565b5b50919050565b60008190508160005260206000209050919050565b60006020601f8301049050919050565b600082821b905092915050565b600060088302620002b57fffffffffffffffffffffffffffffffffffffffffffffffffffffffffffffffff8262000276565b620002c1868362000276565b95508019841693508086168417925050509392505050565b6000819050919050565b6000819050919050565b60006200030e620003086200030284620002d9565b620002e3565b620002d9565b9050919050565b6000819050919050565b6200032a83620002ed565b62000342620003398262000315565b84845462000283565b825550505050565b600090565b620003596200034a565b620003668184846200031f565b505050565b5b818110156200038e57620003826000826200034f565b6001810190506200036c565b5050565b601f821115620003dd57620003a78162000251565b620003b28462000266565b81016020851015620003c2578190505b620003da620003d18562000266565b8301826200036b565b50505b505050565b600082821c905092915050565b60006200040260001984600802620003e2565b1980831691505092915050565b60006200041d8383620003ef565b9150826002028217905092915050565b6200043882620001b3565b67ffffffffffffffff811115620004545762000453620001be565b5b6200046082546200021c565b6200046d82828562000392565b600060209050601f831160018114620004a5576000841562000490578287015190505b6200049c85826200040f565b8655506200050c565b601f198416620004b58662000251565b60005b82811015620004df57848901518255600182019150602085019450602081019050620004b8565b86831015620004ff5784890151620004fb601f891682620003ef565b8355505b6001600288020188555050505b505050505050565b61396a80620005246000396000f3fe608060405234801561001057600080fd5b506004361061014d5760003560e01c80637c711b27116100c3578063b88d4fde1161007c578063b88d4fde14610366578063c87b56dd14610382578063d204c45e146103b2578063e985e9c5146103ce578063f2fde38b146103fe578063fedea0231461041a5761014d565b80637c711b27146102b65780637fb3a9a2146102e85780638456cb59146103045780638da5cb5b1461030e57806395d89b411461032c578063a22cb4651461034a5761014d565b80633f4ba83a116101155780633f4ba83a1461020857806342842e0e146102125780635c975abb1461022e5780636352211e1461024c57806370a082311461027c578063715018a6146102ac5761014d565b806301ffc9a71461015257806306fdde0314610182578063081812fc146101a0578063095ea7b3146101d057806323b872dd146101ec575b600080fd5b61016c6004803603810190610167919061234a565b610438565b6040516101799190612392565b60405180910390f35b61018a61051a565b604051610197919061243d565b60405180910390f35b6101ba60048036038101906101b59190612495565b6105ac565b6040516101c79190612503565b60405180910390f35b6101ea60048036038101906101e5919061254a565b6105f2565b005b6102066004803603810190610201919061258a565b610709565b005b610210610769565b005b61022c6004803603810190610227919061258a565b61077b565b005b61023661079b565b6040516102439190612392565b60405180910390f35b61026660048036038101906102619190612495565b6107b2565b6040516102739190612503565b60405180910390f35b610296600480360381019061029191906125dd565b610838565b6040516102a39190612619565b60405180910390f35b6102b46108ef565b005b6102d060048036038101906102cb9190612495565b610903565b6040516102df93929190612634565b60405180910390f35b61030260048036038101906102fd91906127a7565b6109e5565b005b61030c6109fb565b005b610316610a0d565b6040516103239190612503565b60405180910390f35b610334610a37565b604051610341919061243d565b60405180910390f35b610364600480360381019061035f919061282f565b610ac9565b005b610380600480360381019061037b9190612910565b610adf565b005b61039c60048036038101906103979190612495565b610b41565b6040516103a9919061243d565b60405180910390f35b6103cc60048036038101906103c79190612993565b610b53565b005b6103e860048036038101906103e391906129ef565b610c57565b6040516103f59190612392565b60405180910390f35b610418600480360381019061041391906125dd565b610ceb565b005b610422610d6e565b60405161042f9190612ba9565b60405180910390f35b60007f80ac58cd000000000000000000000000000000000000000000000000000000007bffffffffffffffffffffffffffffffffffffffffffffffffffffffff1916827bffffffffffffffffffffffffffffffffffffffffffffffffffffffff1916148061050357507f5b5e139f000000000000000000000000000000000000000000000000000000007bffffffffffffffffffffffffffffffffffffffffffffffffffffffff1916827bffffffffffffffffffffffffffffffffffffffffffffffffffffffff1916145b80610513575061051282610ebf565b5b9050919050565b60606000805461052990612bfa565b80601f016020809104026020016040519081016040528092919081815260200182805461055590612bfa565b80156105a25780601f10610577576101008083540402835291602001916105a2565b820191906000526020600020905b81548152906001019060200180831161058557829003601f168201915b5050505050905090565b60006105b782610f29565b6004600083815260200190815260200160002060009054906101000a900473ffffffffffffffffffffffffffffffffffffffff169050919050565b60006105fd826107b2565b90508073ffffffffffffffffffffffffffffffffffffffff168373ffffffffffffffffffffffffffffffffffffffff160361066d576040517f08c379a000000000000000000000000000000000000000000000000000000000815260040161066490612c9d565b60405180910390fd5b8073ffffffffffffffffffffffffffffffffffffffff1661068c610f74565b73ffffffffffffffffffffffffffffffffffffffff1614806106bb57506106ba816106b5610f74565b610c57565b5b6106fa576040517f08c379a00000000000000000000000000000000000000000000000000000000081526004016106f190612d2f565b60405180910390fd5b6107048383610f7c565b505050565b61071a610714610f74565b82611035565b610759576040517f08c379a000000000000000000000000000000000000000000000000000000000815260040161075090612dc1565b60405180910390fd5b6107648383836110ca565b505050565b6107716113c3565b610779611441565b565b61079683838360405180602001604052806000815250610adf565b505050565b6000600760009054906101000a900460ff16905090565b6000806107be836114a4565b9050600073ffffffffffffffffffffffffffffffffffffffff168173ffffffffffffffffffffffffffffffffffffffff160361082f576040517f08c379a000000000000000000000000000000000000000000000000000000000815260040161082690612e2d565b60405180910390fd5b80915050919050565b60008073ffffffffffffffffffffffffffffffffffffffff168273ffffffffffffffffffffffffffffffffffffffff16036108a8576040517f08c379a000000000000000000000000000000000000000000000000000000000815260040161089f90612ebf565b60405180910390fd5b600360008373ffffffffffffffffffffffffffffffffffffffff1673ffffffffffffffffffffffffffffffffffffffff168152602001908152602001600020549050919050565b6108f76113c3565b61090160006114e1565b565b6009818154811061091357600080fd5b90600052602060002090600302016000915090508060000160009054906101000a900473ffffffffffffffffffffffffffffffffffffffff169080600101805461095c90612bfa565b80601f016020809104026020016040519081016040528092919081815260200182805461098890612bfa565b80156109d55780601f106109aa576101008083540402835291602001916109d5565b820191906000526020600020905b8154815290600101906020018083116109b857829003601f168201915b5050505050908060020154905083565b6109ed6113c3565b6109f782826115a7565b5050565b610a036113c3565b610a0b611614565b565b6000600760019054906101000a900473ffffffffffffffffffffffffffffffffffffffff16905090565b606060018054610a4690612bfa565b80601f0160208091040260200160405190810160405280929190818152602001828054610a7290612bfa565b8015610abf5780601f10610a9457610100808354040283529160200191610abf565b820191906000526020600020905b815481529060010190602001808311610aa257829003601f168201915b5050505050905090565b610adb610ad4610f74565b8383611677565b5050565b610af0610aea610f74565b83611035565b610b2f576040517f08c379a0000000000000000000000000000000000000000000000000000000008152600401610b2690612dc1565b60405180910390fd5b610b3b848484846117e3565b50505050565b6060610b4c8261183f565b9050919050565b610b5b6113c3565b6000610b676008611951565b9050600060405180606001604052803373ffffffffffffffffffffffffffffffffffffffff168152602001848152602001838152509050610ba8600861195f565b610bb28483611975565b610bbc82846115a7565b600981908060018154018082558091505060019003906000526020600020906003020160009091909190915060008201518160000160006101000a81548173ffffffffffffffffffffffffffffffffffffffff021916908373ffffffffffffffffffffffffffffffffffffffff1602179055506020820151816001019081610c44919061308b565b5060408201518160020155505050505050565b6000600560008473ffffffffffffffffffffffffffffffffffffffff1673ffffffffffffffffffffffffffffffffffffffff16815260200190815260200160002060008373ffffffffffffffffffffffffffffffffffffffff1673ffffffffffffffffffffffffffffffffffffffff16815260200190815260200160002060009054906101000a900460ff16905092915050565b610cf36113c3565b600073ffffffffffffffffffffffffffffffffffffffff168173ffffffffffffffffffffffffffffffffffffffff1603610d62576040517f08c379a0000000000000000000000000000000000000000000000000000000008152600401610d59906131cf565b60405180910390fd5b610d6b816114e1565b50565b60606009805480602002602001604051908101604052809291908181526020016000905b82821015610eb657838290600052602060002090600302016040518060600160405290816000820160009054906101000a900473ffffffffffffffffffffffffffffffffffffffff1673ffffffffffffffffffffffffffffffffffffffff1673ffffffffffffffffffffffffffffffffffffffff168152602001600182018054610e1b90612bfa565b80601f0160208091040260200160405190810160405280929190818152602001828054610e4790612bfa565b8015610e945780601f10610e6957610100808354040283529160200191610e94565b820191906000526020600020905b815481529060010190602001808311610e7757829003601f168201915b5050505050815260200160028201548152505081526020019060010190610d92565b50505050905090565b60007f01ffc9a7000000000000000000000000000000000000000000000000000000007bffffffffffffffffffffffffffffffffffffffffffffffffffffffff1916827bffffffffffffffffffffffffffffffffffffffffffffffffffffffff1916149050919050565b610f3281611993565b610f71576040517f08c379a0000000000000000000000000000000000000000000000000000000008152600401610f6890612e2d565b60405180910390fd5b50565b600033905090565b816004600083815260200190815260200160002060006101000a81548173ffffffffffffffffffffffffffffffffffffffff021916908373ffffffffffffffffffffffffffffffffffffffff160217905550808273ffffffffffffffffffffffffffffffffffffffff16610fef836107b2565b73ffffffffffffffffffffffffffffffffffffffff167f8c5be1e5ebec7d5bd14f71427d1e84f3dd0314c0f7b2291e5b200ac8c7c3b92560405160405180910390a45050565b600080611041836107b2565b90508073ffffffffffffffffffffffffffffffffffffffff168473ffffffffffffffffffffffffffffffffffffffff16148061108357506110828185610c57565b5b806110c157508373ffffffffffffffffffffffffffffffffffffffff166110a9846105ac565b73ffffffffffffffffffffffffffffffffffffffff16145b91505092915050565b8273ffffffffffffffffffffffffffffffffffffffff166110ea826107b2565b73ffffffffffffffffffffffffffffffffffffffff1614611140576040517f08c379a000000000000000000000000000000000000000000000000000000000815260040161113790613261565b60405180910390fd5b600073ffffffffffffffffffffffffffffffffffffffff168273ffffffffffffffffffffffffffffffffffffffff16036111af576040517f08c379a00000000000000000000000000000000000000000000000000000000081526004016111a6906132f3565b60405180910390fd5b6111bc83838360016119d4565b8273ffffffffffffffffffffffffffffffffffffffff166111dc826107b2565b73ffffffffffffffffffffffffffffffffffffffff1614611232576040517f08c379a000000000000000000000000000000000000000000000000000000000815260040161122990613261565b60405180910390fd5b6004600082815260200190815260200160002060006101000a81549073ffffffffffffffffffffffffffffffffffffffff02191690556001600360008573ffffffffffffffffffffffffffffffffffffffff1673ffffffffffffffffffffffffffffffffffffffff168152602001908152602001600020600082825403925050819055506001600360008473ffffffffffffffffffffffffffffffffffffffff1673ffffffffffffffffffffffffffffffffffffffff16815260200190815260200160002060008282540192505081905550816002600083815260200190815260200160002060006101000a81548173ffffffffffffffffffffffffffffffffffffffff021916908373ffffffffffffffffffffffffffffffffffffffff160217905550808273ffffffffffffffffffffffffffffffffffffffff168473ffffffffffffffffffffffffffffffffffffffff167fddf252ad1be2c89b69c2b068fc378daa952ba7f163c4a11628f55a4df523b3ef60405160405180910390a46113be8383836001611a5d565b505050565b6113cb610f74565b73ffffffffffffffffffffffffffffffffffffffff166113e9610a0d565b73ffffffffffffffffffffffffffffffffffffffff161461143f576040517f08c379a00000000000000000000000000000000000000000000000000000000081526004016114369061335f565b60405180910390fd5b565b611449611a63565b6000600760006101000a81548160ff0219169083151502179055507f5db9ee0a495bf2e6ff9c91a7834c1ba4fdd244a5e8aa4e537bd38aeae4b073aa61148d610f74565b60405161149a9190612503565b60405180910390a1565b60006002600083815260200190815260200160002060009054906101000a900473ffffffffffffffffffffffffffffffffffffffff169050919050565b6000600760019054906101000a900473ffffffffffffffffffffffffffffffffffffffff16905081600760016101000a81548173ffffffffffffffffffffffffffffffffffffffff021916908373ffffffffffffffffffffffffffffffffffffffff1602179055508173ffffffffffffffffffffffffffffffffffffffff168173ffffffffffffffffffffffffffffffffffffffff167f8be0079c531659141344cd1fd0a4f28419497f9722a3daafe3b4186f6b6457e060405160405180910390a35050565b6115b082611993565b6115ef576040517f08c379a00000000000000000000000000000000000000000000000000000000081526004016115e6906133f1565b60405180910390fd5b8060066000848152602001908152602001600020908161160f919061308b565b505050565b61161c611aac565b6001600760006101000a81548160ff0219169083151502179055507f62e78cea01bee320cd4e420270b5ea74000d11b0c9f74754ebdbfc544b05a258611660610f74565b60405161166d9190612503565b60405180910390a1565b8173ffffffffffffffffffffffffffffffffffffffff168373ffffffffffffffffffffffffffffffffffffffff16036116e5576040517f08c379a00000000000000000000000000000000000000000000000000000000081526004016116dc9061345d565b60405180910390fd5b80600560008573ffffffffffffffffffffffffffffffffffffffff1673ffffffffffffffffffffffffffffffffffffffff16815260200190815260200160002060008473ffffffffffffffffffffffffffffffffffffffff1673ffffffffffffffffffffffffffffffffffffffff16815260200190815260200160002060006101000a81548160ff0219169083151502179055508173ffffffffffffffffffffffffffffffffffffffff168373ffffffffffffffffffffffffffffffffffffffff167f17307eab39ab6107e8899845ad3d59bd9653f200f220920489ca2b5937696c31836040516117d69190612392565b60405180910390a3505050565b6117ee8484846110ca565b6117fa84848484611af6565b611839576040517f08c379a0000000000000000000000000000000000000000000000000000000008152600401611830906134ef565b60405180910390fd5b50505050565b606061184a82610f29565b600060066000848152602001908152602001600020805461186a90612bfa565b80601f016020809104026020016040519081016040528092919081815260200182805461189690612bfa565b80156118e35780601f106118b8576101008083540402835291602001916118e3565b820191906000526020600020905b8154815290600101906020018083116118c657829003601f168201915b5050505050905060006118f4611c7d565b9050600081510361190957819250505061194c565b60008251111561193e57808260405160200161192692919061354b565b6040516020818303038152906040529250505061194c565b61194784611c94565b925050505b919050565b600081600001549050919050565b6001816000016000828254019250508190555050565b61198f828260405180602001604052806000815250611cfc565b5050565b60008073ffffffffffffffffffffffffffffffffffffffff166119b5836114a4565b73ffffffffffffffffffffffffffffffffffffffff1614159050919050565b6119dc611aac565b600073ffffffffffffffffffffffffffffffffffffffff168473ffffffffffffffffffffffffffffffffffffffff1614611a4b576040517f08c379a0000000000000000000000000000000000000000000000000000000008152600401611a42906135bb565b60405180910390fd5b611a5784848484611d57565b50505050565b50505050565b611a6b61079b565b611aaa576040517f08c379a0000000000000000000000000000000000000000000000000000000008152600401611aa190613627565b60405180910390fd5b565b611ab461079b565b15611af4576040517f08c379a0000000000000000000000000000000000000000000000000000000008152600401611aeb90613693565b60405180910390fd5b565b6000611b178473ffffffffffffffffffffffffffffffffffffffff16611e7d565b15611c70578373ffffffffffffffffffffffffffffffffffffffff1663150b7a02611b40610f74565b8786866040518563ffffffff1660e01b8152600401611b629493929190613708565b6020604051808303816000875af1925050508015611b9e57506040513d601f19601f82011682018060405250810190611b9b9190613769565b60015b611c20573d8060008114611bce576040519150601f19603f3d011682016040523d82523d6000602084013e611bd3565b606091505b506000815103611c18576040517f08c379a0000000000000000000000000000000000000000000000000000000008152600401611c0f906134ef565b60405180910390fd5b805181602001fd5b63150b7a0260e01b7bffffffffffffffffffffffffffffffffffffffffffffffffffffffff1916817bffffffffffffffffffffffffffffffffffffffffffffffffffffffff191614915050611c75565b600190505b949350505050565b606060405180602001604052806000815250905090565b6060611c9f82610f29565b6000611ca9611c7d565b90506000815111611cc95760405180602001604052806000815250611cf4565b80611cd384611ea0565b604051602001611ce492919061354b565b6040516020818303038152906040525b915050919050565b611d068383611f6e565b611d136000848484611af6565b611d52576040517f08c379a0000000000000000000000000000000000000000000000000000000008152600401611d49906134ef565b60405180910390fd5b505050565b6001811115611e7757600073ffffffffffffffffffffffffffffffffffffffff168473ffffffffffffffffffffffffffffffffffffffff1614611deb5780600360008673ffffffffffffffffffffffffffffffffffffffff1673ffffffffffffffffffffffffffffffffffffffff1681526020019081526020016000206000828254611de391906137c5565b925050819055505b600073ffffffffffffffffffffffffffffffffffffffff168373ffffffffffffffffffffffffffffffffffffffff1614611e765780600360008573ffffffffffffffffffffffffffffffffffffffff1673ffffffffffffffffffffffffffffffffffffffff1681526020019081526020016000206000828254611e6e91906137f9565b925050819055505b5b50505050565b6000808273ffffffffffffffffffffffffffffffffffffffff163b119050919050565b606060006001611eaf8461218b565b01905060008167ffffffffffffffff811115611ece57611ecd61267c565b5b6040519080825280601f01601f191660200182016040528015611f005781602001600182028036833780820191505090505b509050600082602001820190505b600115611f63578080600190039150507f3031323334353637383961626364656600000000000000000000000000000000600a86061a8153600a8581611f5757611f5661382d565b5b04945060008503611f0e575b819350505050919050565b600073ffffffffffffffffffffffffffffffffffffffff168273ffffffffffffffffffffffffffffffffffffffff1603611fdd576040517f08c379a0000000000000000000000000000000000000000000000000000000008152600401611fd4906138a8565b60405180910390fd5b611fe681611993565b15612026576040517f08c379a000000000000000000000000000000000000000000000000000000000815260040161201d90613914565b60405180910390fd5b6120346000838360016119d4565b61203d81611993565b1561207d576040517f08c379a000000000000000000000000000000000000000000000000000000000815260040161207490613914565b60405180910390fd5b6001600360008473ffffffffffffffffffffffffffffffffffffffff1673ffffffffffffffffffffffffffffffffffffffff16815260200190815260200160002060008282540192505081905550816002600083815260200190815260200160002060006101000a81548173ffffffffffffffffffffffffffffffffffffffff021916908373ffffffffffffffffffffffffffffffffffffffff160217905550808273ffffffffffffffffffffffffffffffffffffffff16600073ffffffffffffffffffffffffffffffffffffffff167fddf252ad1be2c89b69c2b068fc378daa952ba7f163c4a11628f55a4df523b3ef60405160405180910390a4612187600083836001611a5d565b5050565b600080600090507a184f03e93ff9f4daa797ed6e38ed64bf6a1f01000000000000000083106121e9577a184f03e93ff9f4daa797ed6e38ed64bf6a1f01000000000000000083816121df576121de61382d565b5b0492506040810190505b6d04ee2d6d415b85acef81000000008310612226576d04ee2d6d415b85acef8100000000838161221c5761221b61382d565b5b0492506020810190505b662386f26fc10000831061225557662386f26fc10000838161224b5761224a61382d565b5b0492506010810190505b6305f5e100831061227e576305f5e10083816122745761227361382d565b5b0492506008810190505b61271083106122a35761271083816122995761229861382d565b5b0492506004810190505b606483106122c657606483816122bc576122bb61382d565b5b0492506002810190505b600a83106122d5576001810190505b80915050919050565b6000604051905090565b600080fd5b600080fd5b60007fffffffff0000000000000000000000000000000000000000000000000000000082169050919050565b612327816122f2565b811461233257600080fd5b50565b6000813590506123448161231e565b92915050565b6000602082840312156123605761235f6122e8565b5b600061236e84828501612335565b91505092915050565b60008115159050919050565b61238c81612377565b82525050565b60006020820190506123a76000830184612383565b92915050565b600081519050919050565b600082825260208201905092915050565b60005b838110156123e75780820151818401526020810190506123cc565b60008484015250505050565b6000601f19601f8301169050919050565b600061240f826123ad565b61241981856123b8565b93506124298185602086016123c9565b612432816123f3565b840191505092915050565b600060208201905081810360008301526124578184612404565b905092915050565b6000819050919050565b6124728161245f565b811461247d57600080fd5b50565b60008135905061248f81612469565b92915050565b6000602082840312156124ab576124aa6122e8565b5b60006124b984828501612480565b91505092915050565b600073ffffffffffffffffffffffffffffffffffffffff82169050919050565b60006124ed826124c2565b9050919050565b6124fd816124e2565b82525050565b600060208201905061251860008301846124f4565b92915050565b612527816124e2565b811461253257600080fd5b50565b6000813590506125448161251e565b92915050565b60008060408385031215612561576125606122e8565b5b600061256f85828601612535565b925050602061258085828601612480565b9150509250929050565b6000806000606084860312156125a3576125a26122e8565b5b60006125b186828701612535565b93505060206125c286828701612535565b92505060406125d386828701612480565b9150509250925092565b6000602082840312156125f3576125f26122e8565b5b600061260184828501612535565b91505092915050565b6126138161245f565b82525050565b600060208201905061262e600083018461260a565b92915050565b600060608201905061264960008301866124f4565b818103602083015261265b8185612404565b905061266a604083018461260a565b949350505050565b600080fd5b600080fd5b7f4e487b7100000000000000000000000000000000000000000000000000000000600052604160045260246000fd5b6126b4826123f3565b810181811067ffffffffffffffff821117156126d3576126d261267c565b5b80604052505050565b60006126e66122de565b90506126f282826126ab565b919050565b600067ffffffffffffffff8211156127125761271161267c565b5b61271b826123f3565b9050602081019050919050565b82818337600083830152505050565b600061274a612745846126f7565b6126dc565b90508281526020810184848401111561276657612765612677565b5b612771848285612728565b509392505050565b600082601f83011261278e5761278d612672565b5b813561279e848260208601612737565b91505092915050565b600080604083850312156127be576127bd6122e8565b5b60006127cc85828601612480565b925050602083013567ffffffffffffffff8111156127ed576127ec6122ed565b5b6127f985828601612779565b9150509250929050565b61280c81612377565b811461281757600080fd5b50565b60008135905061282981612803565b92915050565b60008060408385031215612846576128456122e8565b5b600061285485828601612535565b92505060206128658582860161281a565b9150509250929050565b600067ffffffffffffffff82111561288a5761288961267c565b5b612893826123f3565b9050602081019050919050565b60006128b36128ae8461286f565b6126dc565b9050828152602081018484840111156128cf576128ce612677565b5b6128da848285612728565b509392505050565b600082601f8301126128f7576128f6612672565b5b81356129078482602086016128a0565b91505092915050565b6000806000806080858703121561292a576129296122e8565b5b600061293887828801612535565b945050602061294987828801612535565b935050604061295a87828801612480565b925050606085013567ffffffffffffffff81111561297b5761297a6122ed565b5b612987878288016128e2565b91505092959194509250565b600080604083850312156129aa576129a96122e8565b5b60006129b885828601612535565b925050602083013567ffffffffffffffff8111156129d9576129d86122ed565b5b6129e585828601612779565b9150509250929050565b60008060408385031215612a0657612a056122e8565b5b6000612a1485828601612535565b9250506020612a2585828601612535565b9150509250929050565b600081519050919050565b600082825260208201905092915050565b6000819050602082019050919050565b612a64816124e2565b82525050565b600082825260208201905092915050565b6000612a86826123ad565b612a908185612a6a565b9350612aa08185602086016123c9565b612aa9816123f3565b840191505092915050565b612abd8161245f565b82525050565b6000606083016000830151612adb6000860182612a5b565b5060208301518482036020860152612af38282612a7b565b9150506040830151612b086040860182612ab4565b508091505092915050565b6000612b1f8383612ac3565b905092915050565b6000602082019050919050565b6000612b3f82612a2f565b612b498185612a3a565b935083602082028501612b5b85612a4b565b8060005b85811015612b975784840389528151612b788582612b13565b9450612b8383612b27565b925060208a01995050600181019050612b5f565b50829750879550505050505092915050565b60006020820190508181036000830152612bc38184612b34565b905092915050565b7f4e487b7100000000000000000000000000000000000000000000000000000000600052602260045260246000fd5b60006002820490506001821680612c1257607f821691505b602082108103612c2557612c24612bcb565b5b50919050565b7f4552433732313a20617070726f76616c20746f2063757272656e74206f776e6560008201527f7200000000000000000000000000000000000000000000000000000000000000602082015250565b6000612c876021836123b8565b9150612c9282612c2b565b604082019050919050565b60006020820190508181036000830152612cb681612c7a565b9050919050565b7f4552433732313a20617070726f76652063616c6c6572206973206e6f7420746f60008201527f6b656e206f776e6572206f7220617070726f76656420666f7220616c6c000000602082015250565b6000612d19603d836123b8565b9150612d2482612cbd565b604082019050919050565b60006020820190508181036000830152612d4881612d0c565b9050919050565b7f4552433732313a2063616c6c6572206973206e6f7420746f6b656e206f776e6560008201527f72206f7220617070726f76656400000000000000000000000000000000000000602082015250565b6000612dab602d836123b8565b9150612db682612d4f565b604082019050919050565b60006020820190508181036000830152612dda81612d9e565b9050919050565b7f4552433732313a20696e76616c696420746f6b656e2049440000000000000000600082015250565b6000612e176018836123b8565b9150612e2282612de1565b602082019050919050565b60006020820190508181036000830152612e4681612e0a565b9050919050565b7f4552433732313a2061646472657373207a65726f206973206e6f74206120766160008201527f6c6964206f776e65720000000000000000000000000000000000000000000000602082015250565b6000612ea96029836123b8565b9150612eb482612e4d565b604082019050919050565b60006020820190508181036000830152612ed881612e9c565b9050919050565b60008190508160005260206000209050919050565b60006020601f8301049050919050565b600082821b905092915050565b600060088302612f417fffffffffffffffffffffffffffffffffffffffffffffffffffffffffffffffff82612f04565b612f4b8683612f04565b95508019841693508086168417925050509392505050565b6000819050919050565b6000612f88612f83612f7e8461245f565b612f63565b61245f565b9050919050565b6000819050919050565b612fa283612f6d565b612fb6612fae82612f8f565b848454612f11565b825550505050565b600090565b612fcb612fbe565b612fd6818484612f99565b505050565b5b81811015612ffa57612fef600082612fc3565b600181019050612fdc565b5050565b601f82111561303f5761301081612edf565b61301984612ef4565b81016020851015613028578190505b61303c61303485612ef4565b830182612fdb565b50505b505050565b600082821c905092915050565b600061306260001984600802613044565b1980831691505092915050565b600061307b8383613051565b9150826002028217905092915050565b613094826123ad565b67ffffffffffffffff8111156130ad576130ac61267c565b5b6130b78254612bfa565b6130c2828285612ffe565b600060209050601f8311600181146130f557600084156130e3578287015190505b6130ed858261306f565b865550613155565b601f19841661310386612edf565b60005b8281101561312b57848901518255600182019150602085019450602081019050613106565b868310156131485784890151613144601f891682613051565b8355505b6001600288020188555050505b505050505050565b7f4f776e61626c653a206e6577206f776e657220697320746865207a65726f206160008201527f6464726573730000000000000000000000000000000000000000000000000000602082015250565b60006131b96026836123b8565b91506131c48261315d565b604082019050919050565b600060208201905081810360008301526131e8816131ac565b9050919050565b7f4552433732313a207472616e736665722066726f6d20696e636f72726563742060008201527f6f776e6572000000000000000000000000000000000000000000000000000000602082015250565b600061324b6025836123b8565b9150613256826131ef565b604082019050919050565b6000602082019050818103600083015261327a8161323e565b9050919050565b7f4552433732313a207472616e7366657220746f20746865207a65726f2061646460008201527f7265737300000000000000000000000000000000000000000000000000000000602082015250565b60006132dd6024836123b8565b91506132e882613281565b604082019050919050565b6000602082019050818103600083015261330c816132d0565b9050919050565b7f4f776e61626c653a2063616c6c6572206973206e6f7420746865206f776e6572600082015250565b60006133496020836123b8565b915061335482613313565b602082019050919050565b600060208201905081810360008301526133788161333c565b9050919050565b7f45524337323155524953746f726167653a2055524920736574206f66206e6f6e60008201527f6578697374656e7420746f6b656e000000000000000000000000000000000000602082015250565b60006133db602e836123b8565b91506133e68261337f565b604082019050919050565b6000602082019050818103600083015261340a816133ce565b9050919050565b7f4552433732313a20617070726f766520746f2063616c6c657200000000000000600082015250565b60006134476019836123b8565b915061345282613411565b602082019050919050565b600060208201905081810360008301526134768161343a565b9050919050565b7f4552433732313a207472616e7366657220746f206e6f6e20455243373231526560008201527f63656976657220696d706c656d656e7465720000000000000000000000000000602082015250565b60006134d96032836123b8565b91506134e48261347d565b604082019050919050565b60006020820190508181036000830152613508816134cc565b9050919050565b600081905092915050565b6000613525826123ad565b61352f818561350f565b935061353f8185602086016123c9565b80840191505092915050565b6000613557828561351a565b9150613563828461351a565b91508190509392505050565b7f4572723a20746f6b656e20697320534f554c20424f554e440000000000000000600082015250565b60006135a56018836123b8565b91506135b08261356f565b602082019050919050565b600060208201905081810360008301526135d481613598565b9050919050565b7f5061757361626c653a206e6f7420706175736564000000000000000000000000600082015250565b60006136116014836123b8565b915061361c826135db565b602082019050919050565b6000602082019050818103600083015261364081613604565b9050919050565b7f5061757361626c653a2070617573656400000000000000000000000000000000600082015250565b600061367d6010836123b8565b915061368882613647565b602082019050919050565b600060208201905081810360008301526136ac81613670565b9050919050565b600081519050919050565b600082825260208201905092915050565b60006136da826136b3565b6136e481856136be565b93506136f48185602086016123c9565b6136fd816123f3565b840191505092915050565b600060808201905061371d60008301876124f4565b61372a60208301866124f4565b613737604083018561260a565b818103606083015261374981846136cf565b905095945050505050565b6000815190506137638161231e565b92915050565b60006020828403121561377f5761377e6122e8565b5b600061378d84828501613754565b91505092915050565b7f4e487b7100000000000000000000000000000000000000000000000000000000600052601160045260246000fd5b60006137d08261245f565b91506137db8361245f565b92508282039050818111156137f3576137f2613796565b5b92915050565b60006138048261245f565b915061380f8361245f565b925082820190508082111561382757613826613796565b5b92915050565b7f4e487b7100000000000000000000000000000000000000000000000000000000600052601260045260246000fd5b7f4552433732313a206d696e7420746f20746865207a65726f2061646472657373600082015250565b60006138926020836123b8565b915061389d8261385c565b602082019050919050565b600060208201905081810360008301526138c181613885565b9050919050565b7f4552433732313a20746f6b656e20616c7265616479206d696e74656400000000600082015250565b60006138fe601c836123b8565b9150613909826138c8565b602082019050919050565b6000602082019050818103600083015261392d816138f1565b905091905056fea26469706673582212200407ff3fe8a066fd4eda8e5345a3a41078a460fd6f5cfc58cd6ac38b734f35f564736f6c63430008110033",
    "linkReferences": {},
    "deployedLinkReferences": {}
}